:1000000000000420B5020000DD020000DF02000055
:10001000E1020000E3020000E50200000000000031
:10002000000000000000000000000000E7020000E7
:10003000E902000000000000EB020000ED020000F9
:10004000EF020000EF020000D11D0000EF020000EF
:10005000EF020000EF020000EF020000311E00007E
:10006000BD230000EF020000EF020000EF020000DD
:10007000EF020000EF020000EF020000EF020000BC
:10008000EF020000EF020000EF020000EF020000AC
:10009000EF020000EF020000EF020000EF0200009C
:1000A000EF020000EF020000EF020000EF0200008C
:1000B000EF020000EF02000000000000000000005E
:1000C000EF020000EF020000EF020000EF0200006C
:1000D000EF020000EF020000EF020000EF0200005C
:1000E000EF020000EF020000EF020000000000003D
:1000F00000000000EF02000000000000EF0200001E
:1001000000000000000000000000000000000000EF
:1001100000000000000000000000000000000000DF
:1001200000000000000000000000000000000000CF
:1001300000000000000000000000000000000000BF
:1001400000000000000000000000000000000000AF
:10015000000000000000000000000000000000009F
:10016000000000000000000000000000000000008F
:10017000000000000000000000000000000000007F
:10018000000000000000000000000000000000006F
:10019000000000000000000000000000000000005F
:1001A000000000000000000000000000000000004F
:1001B000000000000000000000000000000000003F
:1001C000000000000000000000000000000000002F
:1001D000000000000000000000000000000000001F
:1001E000000000000000000000000000000000000F
:1001F00000000000000000000000000000000000FF
:1002000010B5054C237833B9044B13B10448AFF350
:1002100000800123237010BD1C020020000000009C
:10022000E03B000008B5034B1BB103490348AFF3A3
:10023000008008BD0000000020020020E03B00001C
:10024000154B002B08BF134B9D46A3F5803A0021A8
:100250008B460F461348144A121A03F050F80F4BFE
:10026000002B00D098470E4B002B00D09847002061
:10027000002104000D000D48002802D00C48AFF307
:10028000008002F0EDFF2000290002F0C9FE02F01C
:10029000D3FF00BF000008000000042000000000A1
:1002A000000000001C0200204C080020000000009C
:1002B000000000000649074A074B9B1A03DD043B78
:1002C000C858D050FBDC02F0D5FEFFF7B9FF0000A4
:1002D000443C0000000000201C020020FEE7FEE776
:1002E000FEE7FEE7FEE7FEE7FEE7FEE7FEE7FEE7E6
:1002F000F0B595B0002415460F4608461E4601F09D
:1003000031FB384623460895082205A91A9D09960F
:100310000D950A948DF82C400C9401F077FB9DF814
:1003200014308DF81140DDE9061003F00302012AB4
:10033000CDE9020127D0022A04D0384601F016FB8D
:1003400015B0F0BDBDF81650C3F3C2038DF81030E0
:10035000AD090826082D2C4628BF0824334622461E
:100360000EA9384601F052FB2D1B214608AB02AA0C
:100370000EA8264400F09EFD002DEBD1384601F07A
:10038000F5FA15B0F0BDBDF81460059DC6F38316EF
:10039000C3F3C204B2000EA9384608238DF81040FA
:1003A000C5F3952501F032FB08AB324628460EA96D
:1003B000009302AB00F0D8FC384601F0D7FA15B034
:1003C000F0BD00BF014B01221A7070477C02002073
:1003D000704700BF00B583B0044B0093044A40232C
:1003E000FFF786FF03B05DF804FB00BFF5030000D4
:1003F0003C02002038B50E480E4D03780E4CEB5CE5
:100400000025D2B2257053B90C3002F057FA58B912
:100410000A4B1B7813B12378002BFCD038BD043075
:1004200002F0D0FC0028F3D000F0F2FDF0E700BFAE
:1004300000000020480800207C0200203802002034
:1004400070B51348134A0378D35C88B0DBB90C301D
:1004500002F0B6F9104D0FCD6C460FC495E80F00B1
:1004600008AD062645F8206D84E80F0029460022D5
:10047000074801F0A7FB08B100F0CAFD074B0022B6
:100480001A7008B070BD043002F01CFCE2E700BF37
:1004900000000020480800205433000038020020EB
:1004A00070B50D4D0FCD88B06C460FC495E80F00A8
:1004B00008AD062645F8206D84E80F002946074A56
:1004C000074801F07FFB08B100F0A2FD054B0122B7
:1004D0001A7008B070BD00BF54330000C50300009F
:1004E000000000203802002010B5054CFFF7D8FFAF
:1004F0002046042100F0F6FB0123637210BD00BF0B
:1005000014000020F0B5314D85B005F5836000F092
:10051000F9FD05F2144000F0F5FDD5E9012702EAE6
:100520000704E31C05EB830319788E0701F0040030
:100530000ED0C8B101F00301012935D0022902F122
:100540000200EED15A8800EB921202EA0704E8E7B3
:10055000561C0028EED159881A8806EB911606EB36
:10056000921202EA0704DCE705EB8404531CE168FD
:1005700001913B4005EB830301F003010129DE6893
:1005800002F102041AD0022916D1BDF806309B09E7
:100590000333360C04EB93040D4800F0BFFD00B1AB
:1005A0006C60304605B0F0BD1B880232C3F3831384
:1005B0001A4402EA0704B4E70646EDE7BDF8043042
:1005C000C3F38313360C1C44E6E700BF500300203E
:1005D0006407002008B50E4B0E480022FF21C3F827
:1005E00018249960C3E90022C3F8142483F8202456
:1005F00001F074F958B9084A084BD21AD20806D04B
:100600000749034621F8233001339A42FAD108BD45
:1006100050030020243C0000243C0000E43B000088
:10062000FC01002021B9134A02EBC00000687047AA
:1006300030B411490F4C091BC90816D00F4B5A880A
:10064000824218BF002205D111E0DD88854203F106
:10065000040305D001329142F7D1002030BC70472D
:1006600004EBC200006830BC70470846F6E720463D
:10067000F8E700BFE43B0000243C0000FC01002040
:10068000094B013903EBC00003290BD8DFE801F067
:1006900002080604022070474079704700797047CD
:1006A0000420704700207047E43B00002DE9F84328
:1006B000DFF8D890074600208846D9F8084000F0B7
:1006C000EDFCD9E90132D9F80060134401339B1BDA
:1006D000012B56D809F21C450121284600F0FAFCEE
:1006E000FFF710FF0146284600F0F4FCD9E901327B
:1006F000D9F80010134401335B1A012BECD90A40DE
:10070000033205230231002049F82230C9F80010D5
:1007100000F0CCFC00211C4800F0D2FC80F310005B
:10072000731C234009EB830300043440033440EA84
:100730001740D86019F8243067F3C50309F824304E
:1007400039F824306FF3891329F8243059F824201C
:1007500068F39F221346012161F301036FF38203C3
:1007600049F8242009F8243099F820341BB906E010
:1007700000F00EF818B1D9E900329A42F8D1BDE87C
:10078000F8833146BBE700BF6C0700205003002010
:100790002DE9F0478D4D002384B0C5F81834BFF320
:1007A0004F8FD5E901462B680CE037B301F0030108
:1007B00001294ED0022903D15288023404EB92144D
:1007C000A34215D904EA0600C21C05EB8202117887
:1007D00011F0030F01F00407E7D1002FE6D1518893
:1007E0001288013404EB911404EB9214A342E9D86B
:1007F00000206B6004B0BDE8F08705EB8000631C4F
:10080000C2680192334005EB830302F00302DB6808
:100810000293022A04F102087ED0012A1FD0D5F8E3
:10082000104434B1236820469B6898476468002CC4
:10083000F8D1674B67491888000440F00200FFF7C1
:1008400035FFD5E90030C01A18BF012004B0BDE85B
:10085000F08712880234C2F383121444B0E7BDF863
:1008600004205D48C2F38313062B28BF062363F3DD
:10087000891202339900ADF8042001F031F8814665
:100880000028CCD001F06EF83B46082201A948466A
:1008900001F08EF8BDF8043013F4707F00F09380FF
:1008A0006FF0010AAAEB040A082406EA08010331E2
:1008B0002346042205EB8101484601F079F8BDF892
:1008C000043008F101070AEB0702C3F383139342D4
:1008D000B84604F10404E8D8D5F81834002B67D1E1
:1008E000D5F8104454B1637A20464946002B5BD0BA
:1008F00023681B6898476468002CF4D1484601F0CF
:1009000035F8002000F0CAFBD5F8183403B96F6041
:10091000002000F0CBFB94E7BDF806302E489C0980
:10092000502CA24628BF4FF0500A6AF38F130AF1E9
:100930000801ADF8063000F0D3FF814600283FF4EF
:100940006EAF01F00FF83B4626EA08070137082290
:1009500001A94846BF0001F02BF8BA4519D95FFA42
:100960008AF34FB306EA0801DB1B033105EB810173
:10097000DEB23A460823484601F01AF8324607F13B
:1009800008031649484601F013F8033408EB9407AE
:10099000A2E706EA0801033105EB8101524608236C
:1009A000484601F005F8F0E76468002C9BD1A5E704
:1009B000484600F0DBFF44E7524608230749484613
:1009C00000F0F6FFE1E7474686E700BF500300204E
:1009D0001002002080330000243C00005C03002053
:1009E0002DE9F047DFF8E4A007460020914688464D
:1009F000DAF8084000F052FBDAE90132DAF8006078
:100A0000134401339B1B022B5CD80AF21C450121C5
:100A1000284600F05FFBFFF775FD0146284600F011
:100A200059FBDAE90132DAF80010134401335B1A9A
:100A3000022BECD90A4003320331452300204AF847
:100A40002230CAF8001000F031FBB31C23400AEB3F
:100A5000830300211C48C3F80C9000F031FB80F3A5
:100A60001000731C23400AEB83030004344003345A
:100A700040EA1740D8601AF8243067F3C5030AF833
:100A800024303AF82430012161F389132AF8243004
:100A90005AF8242068F39F22134661F301036FF391
:100AA00082034AF824200AF824309AF820341BB92B
:100AB00006E0FFF76DFE18B1DAE900329A42F8D18C
:100AC000BDE8F0873146B5E76C07002050030020F1
:100AD0002DE9F84F3A4C8046002093469A468946C5
:100AE000A56800F0DBFAD4E901322768134401332A
:100AF000DB1B032B61D804F21C460121304600F0B9
:100B0000E9FAFFF7FFFC0146304600F0E3FAD4E9CA
:100B100001322168134401335B1A032BEDD90A40DB
:100B2000033204318523002044F82230216000F094
:100B3000BDFABA1CFB1C2A402B4004EB820204EBDA
:100B4000830300211F48C2F80CB0C3F80CA000F0CA
:100B5000B7FA80F310007B1C2B4004EB83030004E6
:100B60003D40033540EA1840D86014F8253068F35A
:100B7000C50304F8253034F82530022262F38913C6
:100B800024F8253054F8252069F39F2213460121CB
:100B900061F301036FF3820344F8252004F8253044
:100BA00094F820341BB906E0FFF7F2FD18B1D4E940
:100BB00000329A42F8D1BDE8F88F3946AFE700BF5E
:100BC000500300206C0700202DE9F84F3D4C804673
:100BD000002093469A46A568894600F05FFAD4E95A
:100BE0000132276813440133DB1B042B67D804F25E
:100BF0001C460121304600F06DFAFFF783FC0146E8
:100C0000304600F067FAD4E9013221681344013319
:100C10005B1A042BEDD90A4003320531C5230020AD
:100C200044F82230216000F041FAB81CFA1C284038
:100C30002A403B1D2B4004EB800004EB820204EBB6
:100C40008303C0F80CB00021C2F80CA01E480A9A19
:100C5000DA6000F035FA80F310007B1C2B4004EBC7
:100C6000830300043D40033540EA1840D86014F87F
:100C7000253068F3C50304F8253034F82530032205
:100C800062F3891324F8253054F8252069F39F2254
:100C90001346012161F301036FF3820344F8252019
:100CA00004F8253094F820341BB906E0FFF770FDF6
:100CB00018B1D4E900329A42F8D1BDE8F88F39462C
:100CC000A9E700BF500300206C070020044BD3E9C4
:100CD00000239A4201D0FFF75BBD0020704700BFA0
:100CE0005003002030B4154DD5F81044002154B104
:100CF000237A8B4213D0234602E01A7A8A420ED01E
:100D00005B68002BF9D10172D5F810347BB15B68B8
:100D10004360D5F81034586030BC08467047013144
:100D20000A29E4D14FF0FF31084630BC7047C5F8BE
:100D30001004436030BC0846704700BF50030020D9
:100D400038B5084BD3F81044012583F820543CB142
:100D50002368657220465B6898476468002CF7D169
:100D600038BD00BF500300202DE9F04784B01D4678
:100D70000C9C002394F80C802373EB8881460E466C
:100D80001746002B40D1297A05290ED06B7AA88806
:100D900073BB404B53F821A00021FFF743FC5246A0
:100DA00003463D49204600F025FA062F09D8DFE822
:100DB00007F0046A4249525D33004946204600F07C
:100DC00019FA2B7A052B05D06B7A5BB9334920468B
:100DD00000F010FA204600F001FA84F80C8004B00C
:100DE000BDE8F0872E4A2F49204600F003FAEDE7D0
:100DF000FFF746FC2C4B2B4953F82020204600F0EF
:100E0000F9F9297AA888C4E7254A00922749284A8F
:100E1000204600F0EFF9B6E7D6E90410D6E9002342
:100E20000390D6E902070291CDE900074946204622
:100E300000F0E0F9C5E74946D6E90023204600F076
:100E4000D9F9BEE7B168D6E90023204600914946AA
:100E500000F0D0F9B5E7D6E90201D6E90023019107
:100E600000904946204600F0C5F9AAE7D6E903718B
:100E7000B068D6E900230291CDE900074946204633
:100E800000F0B8F99DE732684946204600F0B2F913
:100E900097E700BF20340000103400001C3400002D
:100EA000043400000C340000AC330000EC330000CC
:100EB000E4330000082900D970472DE9F04F1D46A2
:100EC000904600232A7B2B7385B0B8F80630039236
:100ED00007460E46002B78D198F80810052911D046
:100EE00098F80930B8F80400002B60D13B4B53F858
:100EF00021400021FFF796FB224603463849284649
:100F000000F078F9DFF8F8B0DFF8F890002405E099
:100F10003A5D013400F06EF9082C09D0A64249462A
:100F20002846F5D85946013400F064F9082CF5D16B
:100F30002C49DFF8D490DFF8D4B0284600F05AF9F5
:100F4000002411E017F804A002F0AEF9504459460D
:100F5000437813F0970F14BF52462E2228460134CF
:100F600000F048F9082C08D0A64249462846E9D89E
:100F7000013400F03FF9082CF6D198F80830052B21
:100F800002D098F8093063B91749284600F032F9C1
:100F9000284600F023F99DF80C302B7305B0BDE80E
:100FA000F08F124A1249284600F024F9ECE7FFF7C7
:100FB00067FB104B0E4953F82020284600F01AF921
:100FC00098F80810B8F8040090E7084A00920A4917
:100FD0000A4A284600F00EF97EE700BF20340000E0
:100FE00010340000DC3300001C3400000434000026
:100FF0000C340000AC330000EC330000E43300009C
:10100000D8330000D033000018340000E033000073
:1010100000B585B000230390194601AA44F20100EF
:10102000CDE9013300F004F805B05DF804FB00BF22
:1010300010B572B6FFF784FEFFF748FE0028FBD11B
:10104000104C11492088000440F00100FFF72EFBEE
:101050000E4B1B68DB0700D500BE20880C4900043E
:1010600040F00200FFF722FBBFF34F8F09490A4B04
:10107000CA6802F4E0621343CB60BFF34F8F00BF36
:10108000FDE700BF100200208C340000F0ED00E00E
:101090009834000000ED00E00400FA0572B6024A40
:1010A000136801331360704774070020034A136804
:1010B000013B136003B962B6704700BF740700209C
:1010C00050E8002F0B4640E8003C9CF0000FF7D1A1
:1010D0001046704750E8003F03EB010240E8002C47
:1010E0009CF0000FF6D11046704700BF50E8003F5B
:1010F000A3EB010240E8002C9CF0000FF6D1104653
:10110000704700BF012350E8002F42EA030C40E87B
:1011100000C191F0000FF6D160467047002350E8FF
:1011200000CF0CEA030240E8002191F0000FF6D155
:1011300060467047B8B130B4D0E90112521A046861
:10114000D2B2531E2160DBB242B101680A685C1E54
:10115000551C0D601370E3B2FF2BF6D1036800201D
:10116000187130BC70470E20704700BF38B5044678
:101170000020FFF793FFD4E900311A688A4215D99D
:10118000511E19602168A3680868A58A12F8012C0D
:10119000E4681B1A0879DBB2984205FB024400D2CE
:1011A0000B710020FFF782FF204638BD0024F8E7CE
:1011B00038B5054600200C46FFF770FF2A68136813
:1011C000591C1160E968AA8A641AB4FBF2F41C7015
:1011D0000020BDE83840FFF769BF00BF826842B118
:1011E00010B5044643690168006998470023A3606D
:1011F00010BD70470EB400B582B0039929B102AAA0
:1012000004AB42F8043D00F08BF802B05DF804EB4B
:1012100003B070472DE9F84F8846904517460546BC
:101220001E46DDE90AB175D343464FF00109B3FB11
:10123000F7F39F4209F10109F9D9B14538BFB14629
:1012400011F0010AAA6802D1BBF1000F43D10124B9
:1012500002E0013E07FB04F4012EFAD8B8FBF4F1DA
:101260008F42F7D92D4E05E0B4FBF7F4A4B1B8FBDB
:10127000F4F1AA68705C531CAB602B689854D5E9F4
:1012800001329A4204FB1188EED32846FFF7A6FFED
:10129000B4FBF7F4002CEAD1BAF1000F15D0BBF182
:1012A000000F12D0CB4510D92024AB682A68591CF6
:1012B000A960D454D5E901329A420BF1FF3B06D222
:1012C000BBF1000F01D0CB45EFD1BDE8F88F284628
:1012D000FFF784FFF4E78B0717D42024CB45B6D95A
:1012E0002B68511CA9609C54D5E901329A420BF13C
:1012F000FF3B05D2BBF1000FA9D0CB45F0D1A6E74B
:101300002846FFF76BFFAA68F4E7002E0CBF3024D5
:101310002024E3E74FF001098FE700BFA834000065
:10132000002900F0F4812DE9F04F054685B0924682
:101330000C460B78DFF8A0B501E0237893B10134B7
:1013400083B1252B15D0AA682968501CA8608B543E
:10135000D5E901329A42F0D32846FFF73FFF2378C0
:10136000002BECD12B7B002B40F0148105B0BDE8A5
:10137000F08F2146002711F8012B2D2A00F0E18083
:10138000302A00F0E2802B2A00F0D2802A2A00F0D6
:10139000E080A2F13006F3B2092B03D9B8E1A3F142
:1013A00030060146084606EB860310F8012BA2F131
:1013B0003004092C02EB4303F1D92E2A00F0D5802A
:1013C0000023013101E011F8012B02F0FB00682835
:1013D0000C46F8D0253A532AAFD801A151F822F093
:1013E000A11500003B1300003B1300003B1300005D
:1013F0003B1300003B1300003B1300003B130000B5
:101400003B1300003B1300003B1300003B130000A4
:101410003B1300003B1300003B1300003B13000094
:101420003B1300003B1300003B1300003B13000084
:101430003B1300003B1300003B1300003B13000074
:101440003B1300003B1300003B1300003B13000064
:101450003B1300003B1300003B1300003B13000054
:101460003B1300003B1300003B1300003B13000044
:101470003B1300003B1300003B1300003B13000034
:101480003B1300003B1300003B1300003B13000024
:101490003B1300003B1300003B1300003B13000014
:1014A0003B1300003B1300003B130000BB15000082
:1014B0003B1300003B1300003B1300003B130000F4
:1014C0003B1300003B1300003B1300003B130000E4
:1014D0003B1300003B130000D5150000F71500007A
:1014E0003B1300003B1300003B1300003B130000C4
:1014F000F71500003B1300003B1300003B130000F6
:101500003B1300003B1300003B1300004716000094
:101510003B1300003B130000BB1600003B13000010
:10152000F51600003B1300003B130000BB15000044
:1015300047F004070C46214611F8012B2D2A7FF4B1
:101540001FAF47F001070C46F5E747F002070C46CE
:10155000F1E7DAF800301A1DCAF8002062781E6838
:101560002E2A04F102007FF42BAF4A78A2F1300357
:10157000092B00F25081002303EB830302EB4303AA
:1015800010F8012FA2F130010929A3F13003F3D99A
:10159000014616E7284605B0BDE8F04FFFF71EBE2E
:1015A000AB682A68591CA9604FF02501D154D5E9D0
:1015B00001329A42FFF4C1AECEE6DAF80020111DE6
:1015C000CAF8001011682846CDE900671022FFF71D
:1015D00021FEB2E6DAF80020131DCAF80030AB682D
:1015E00029681278581CA860CA54D5E901329A4279
:1015F000FFF4A3AEB0E6DAF80020111DCAF800101F
:10160000D2F8008088EAE872A2EBE872092A4FF06B
:10161000010107DDAF48A0FB0202D208092A01F14F
:101620000101F7DC994238BF1946894607F00202EA
:10163000002E71D12AB1002B00F04781FA0700F18A
:101640008D8000268AE0DAF80020131DCAF80030E9
:10165000AB6829681768581C3022A860CA54D5E9BD
:101660000123934280F028812A68581C7821A860C1
:10167000D154D5E90123934280F019810F2F03D96A
:101680003A4612090F2AFCD84FF0805603E036097B
:101690003FF453AEAB682968B7FBF6F2581CA8605C
:1016A0001BF80200C854D5E90131994206FB1277B4
:1016B000EDD32846FFF792FDE9E7DAF800301A1D6E
:1016C000CAF80020D3F80080FB077ED54746A7EB79
:1016D000080917F8013B002B5DD0AA682968501C47
:1016E000A8608B54D5E901329A42F0D32846FFF71F
:1016F00075FDECE7DAF80020111DCAF8001011683A
:101700002846CDE900670A22FFF784FD15E67047F9
:1017100008460026214650E6B8F1000F01DB7807A5
:1017200000D5013E02B1CBB1F90717D4002E88D005
:10173000B14513D220220393A9682B68481CA860E6
:101740005A54D5E90131994206F1FF365DD2002E97
:1017500000F0BD80B145EFD1039B4E46B8F1000FBC
:10176000C0F292807A070AD5A9684A1CAA602A6842
:101770002B205054D5E90121914280F0928007F04E
:101780000302022A5FD0CDE9006741460A222846BB
:10179000FFF740FDD1E54E457FF6CFAD202705E0B0
:1017A0004E453FF4CAAD002E3FF4C7ADAB682A6882
:1017B000591CA960D754D5E901329A4206F1FF3687
:1017C000EED32846FFF70AFDEAE7B8F1000F24D070
:1017D000404601F09CFD0746BE4220D9FEB14FF0C5
:1017E000200902E0BE421AD0CEB1AB682A68591C6B
:1017F000A96002F80390D5E901329A4206F1FF365A
:10180000F0D32846FFF7EAFCECE728460292FFF700
:10181000E5FC029A9BE70146D2E54746DCE708F182
:10182000FF3818F8013F002B3FF487ADAA682968FC
:10183000501CA8608B54D5E901329A42F1D3284656
:10184000FFF7CCFCEDE7002B9DD1002E3BD0B1453E
:1018500099D2029323464C469946AA682B68501C9D
:101860004FF03001A8609954D5E901329A4206F14F
:10187000FF3605D22EB3B442EFD1029B4C4682E72D
:101880002846FFF7ABFCF5E7A9684A1CAA602A685E
:101890002D205054D5E901219142C8F10008FFF4F0
:1018A0006EAF28460293FFF799FC029B67E7284634
:1018B000FFF794FCAB68E1E62846FFF78FFCAB68C6
:1018C000D2E6029B4C4600265DE71E4646E7039B98
:1018D000B7E600BFCDCCCCCCA8340000FFF72ABCC3
:1018E0002DE9F041858ACE1C043D2E440746B6FB07
:1018F000F5F6FFF73BFC78B3F6B24FF48073013E88
:101900000446C5800760838027D08046002509E013
:101910006379AE4203F101036371C8F80000076008
:1019200080461AD03846FFF721FC01350028EFD158
:101930006679721E14D02346013082421B68FBD1A7
:101940001F684EB1002523682146013538461C46E4
:10195000FFF72EFCAE42F6D100242046BDE8F08110
:101960002768EFE704300121FFF7B4BBF8B5012188
:1019700004460430FFF7BAFBC0B200B1F8BD667987
:10198000721E12D02346013082421B68FBD11F68B1
:10199000002EF3D0002523682146013538461C4629
:1019A000FFF706FCAE42F6D1F8BD2768F2E700BFAC
:1019B0002DE9F8430446181DE688B0FBF6F30F4600
:1019C000904606FB130013B1013B2468FCD1351A85
:1019D000454528BF4546B8F1000F15D04FF0000926
:1019E0000430A8EB050820442A4607EB090101F062
:1019F0007BFC4645A944246835464FF0000028BFCB
:101A00004546B8F1000FEBD1BDE8F8832DE9F84366
:101A1000C688043304460F46B3FBF6F0904606FB37
:101A2000103110B101382468FCD1751A454528BF22
:101A30004546B8F1000F15D04FF00009043121449C
:101A4000A8EB05082A4607EB090001F04DFC4645C6
:101A5000A944246835464FF0000128BF4546B8F137
:101A6000000FEBD1BDE8F883064A074B10B5002400
:101A700014701C60BFF35F8F0449054800F024F820
:101A8000204610BD8007002084070020B8340000E5
:101A90007807002008B50020FFF700FBF1EE103AB0
:101AA00023F09F03E1EE103ABFF35F8F054B402216
:101AB000C3F884210020FFF7F9FA20BF40BF20BF00
:101AC00008BD00BF00E100E001600B6843604A68A8
:101AD000934204BF00234360704700BF30B4184DE9
:101AE000A5F58C72AB1ADB1003EBD3735B1002EB22
:101AF000C30152F83330984228BF0C4605D311E099
:101B000052F8333098420CD221468B1ADB1003EB8B
:101B1000D3735B108A4202EBC304F1D3094830BC93
:101B200070470D46984204D904F10802AA42D9D35D
:101B3000F4E76068034B002808BF1846EFE700BFD2
:101B4000FC350000D0340000034B187810B9012296
:101B50001A707047852070478807002030B585B01F
:101B60000478094A094B45688DF80040047AC0683A
:101B7000039053F8213001958DF8084052F8211058
:101B80006846984705B030BD8C07002094070020B8
:101B900030B585B0047845688DF80040D0E9024042
:101BA000064A074B039053F8213001958DF8084001
:101BB00052F821106846984705B030BD8C070020C8
:101BC000940700202DE9F043DFF8748006784B7FFE
:101BD00008F806300D46074696460FCD89B06C468C
:101BE0000FC495E80F003D78DFF85890DFF858C033
:101BF00018F8055049F826E084E80F004CF8260054
:101C0000049665B1BEF1000F0B4A694607F1040066
:101C100008BF002200F04CFF09B0BDE8F083BEF120
:101C2000000F064A694607F10C0008BF002200F0C9
:101C3000CFFC09B0BDE8F0835D1B0000911B0000E4
:101C400048080020940700208C0700202DE9F84F59
:101C5000204DDFF894A0834600264FF0010803E0F2
:101C6000FFF724FAA54331D0F7B2002008FA07F4B1
:101C7000FFF714FA2C424FF0000006F10106EFD0F6
:101C8000DAF8003014EA0309EAD1134E8BF8007039
:101C90001C434846CAF80040FFF708FA30880F494D
:101CA00000043A4640F00300FEF79AFE34884846A6
:101CB000FFF714FF240444F003040346084A0949CB
:101CC0002046FEF705FF4846BDE8F88F4FF00409AF
:101CD000014EEBE7FFFF0F0010020020043A000066
:101CE000BC3900001C3A00009C070020F0B583B00E
:101CF00091B18AB11B4E01233488834015462404D8
:101D00000246C3F3130044F0030448B116480068C8
:101D1000034212D1082504E00E25284603B0F0BD89
:101D200007252846FFF7DAFE104A114903462046E8
:101D3000FEF7CEFE284603B0F0BDD70007F180477E
:101D400007F5F8372046C7F810150B46C7F81455A5
:101D500008490095FEF738FF3488240444F0030452
:101D60000025DEE7100200209C070020D439000087
:101D70001C3A00003C3A000038B5012303FA00F099
:101D8000C0F313031BB10D4B1B68184213D00C4B4F
:101D90000025C3F804050B4B28461C88FFF79EFE60
:101DA000240444F003040346074A08492046FEF78A
:101DB0008FFE284638BD0825EDE700BF9C070020B0
:101DC00000F0014010020020EC3900001C3A000035
:101DD000014B1B68184700BFA007002038B50C4B0B
:101DE000984201D0002038BD00200D46FFF756F97B
:101DF000084B1C7924B10020FFF758F9112038BD99
:101E0000012220461D601A71FFF750F9204638BDA7
:101E100000200040A0070020034B984203D1034B51
:101E200000221A601A71704700200040A0070020AD
:101E30002DE9F041734B1A6888B0002A4CD1DFF8C5
:101E4000DC8198F82E30002B54D16F4B1A686AB1A0
:101E500000221A6008A81B680393022100F80C1DD9
:101E6000D8F80030039988F810209847674B1C6811
:101E7000002C7CD1D8F814705FB34FF000450126D8
:101E8000B7FA87F101F146039B0003F1804202F5A6
:101E9000E042A3F58C73D2F800E083F0040025FA49
:101EA00001F1C0F3800CDB0805A827EA0107BEF1A9
:101EB000000F0CD01460126804928DF818308DF861
:101EC00014608DF819C0D8F80030049A9847002F94
:101ED000D6D108B0BDE8F0810022DFF840811A6059
:101EE000196898F82E3000910099F3B198F82F30C6
:101EF000002B46D1464B1A68002AA6D00020186055
:101F000098F82D201968B8F81A30019191B28B42D7
:101F1000019C4DD861D03B4B3E4A002119601B68A3
:101F200002930123029913608FE7D8F80C20D8F8A8
:101F30000400B8F808108DF814300690ADF81C10A5
:101F4000002A46D03448B8F81810C8F804200122F6
:101F5000C8F80C30A8F81A10A8F808100260D8F8D1
:101F6000003005A89847002388F82F3069E7002241
:101F70001A601B680593059B88F8102008B0BDE81F
:101F8000F081D8F80C30D8F80400B8F808108DF8B3
:101F900014200690ADF81C10DBB1B8F81810C8F882
:101FA0000430C8F80C20A8F81A10A8F80810D6E7D2
:101FB000B8F80800184C5B1A9BB2D8F80410A8F8BF
:101FC0001A30C01A01EB4001C4F82C16C4F83026B0
:101FD000A1E7002388F81030C1E7D8F80C3053B1DE
:101FE0000D49A8F81A00012088F82F00C1F82C36F6
:101FF000C1F830268FE70122A8F81A3088F82F2080
:1020000089E700BF04710040107100401471004066
:10201000007100400470004000700040A8070020DC
:10202000214B93F82C20002A3CD170B41F4C05782A
:102030001960C4F8F05545781D49C4F8F4556FF09F
:1020400000451A74C678C4F8085383B00A6009685A
:10205000184D019101992A60817883F82E602D68CE
:1020600015480095490183F82D205A6183F82F20E7
:10207000C9B28022F5B2009E80F80713C0F8802113
:10208000022102600122C4F8041383F82C200DB150
:10209000C4F80423054B01220020C3F8002503B037
:1020A00070BC704708207047A807002000700040EF
:1020B000047100400071004000E100E0274A137CF9
:1020C000002B48D1F0B400F10C0602EB46031B795B
:1020D00023B992F82D30013382F82D304B788C786B
:1020E0000D780F791B01240204F4E06403F030033F
:1020F0002343CC7805F0030524032B4304F48054D8
:1021000023434C798D793F0407F4E02724053B43B2
:1021100004F480142343040102EB46022D0604F16B
:102120008044CE79167104F5E04405F080750E7A8E
:1021300056712B43C4F81835CB79087AC4F81405C6
:10214000C4F81035CB79097AC4F81415C4F81035E1
:102150000020F0BC70471120704700BFA807002086
:10216000044B054A93F82E00044B00280CBF104680
:1021700018467047A8070020047000400070004017
:10218000F0B42D4A2D4B1224C2F808431D7C022DB9
:1021900082B04BD01C7C012C24D093F82E40586088
:1021A000022701250026C2F804731D74DE60198120
:1021B0006CB9234BC2F82C06C2F830161C601B68A1
:1021C0000193019B1560204602B0F0BC704793F864
:1021D0002D40C2F82C0630465983C2F8304602B072
:1021E000F0BC7047DC6834B102231120C2F804331C
:1021F00002B0F0BC704793F82E20D86019836AB9FA
:102200000F4A1368002BFCD00023136012680A4B9E
:102210000092009AC3F82C06C3F83016064B02222F
:102220000020C3F8042302B0F0BC70471120C2F8AC
:10223000044302B0F0BC704700700040A8070020C3
:1022400000710040F0B407793B4D7E00F419A40002
:1022500005EB040C82B09CF80830002B67D12A51A2
:102260004A68CCF80420427972B19C469A0002F583
:10227000A072046844F802C00133A4584279019462
:10228000DBB29A42019CF1D80468CB78240B62B28D
:102290005B01002ADBB244DB02F1604202F56142DD
:1022A00082F800330268120B42F3C40323F0604348
:1022B00023F0030303F1604303F56143012402F0BB
:1022C0001F0204FA02F2C3F880211A60D0F800C09D
:1022D0004B78DCF8042503F0030322F003021343D8
:1022E000CCF80435D0F800C08B78DCF8082503F072
:1022F000030322F003021343CCF8083500680B787F
:10230000D0F810253E4422F00F0203F00F0305EB36
:1023100086051343C0F8103500202C7202B0F0BCC3
:102320007047064A04F00F0422441376BAE70820E7
:1023300002B0F0BC704700BFD8070020FCEC00E002
:102340000368054A01211960037903EB430302EB9B
:10235000830302221A727047D8070020F0B407687E
:1023600040F20115D7F800428D4024EA0504C7F871
:102370000042056882B0D5F800429DF818602343FA
:102380004FF48034C5F800328C4056B90368C3F866
:102390000843036801F5A87143F8212002B0F0BC9E
:1023A000704701F150039B0005680026EE50ED5880
:1023B00003680195019DC3F80443EAE72DE9F04164
:1023C000114C124EDFF8488082B000254FF4803760
:1023D0002368A4F5004007FA05F20021013580B218
:1023E00053B1D6F804331A4206D021602368019312
:1023F000D8E90031019A9847042D04F10404E7D18B
:1024000002B0BDE8F08100BF408100400080004084
:10241000D807002030B56C4AD2F8043399058BB048
:1024200066D5D2F82431002B62D00023C2F82431C3
:10243000D2F8243103934FF40171644B0398C2F82E
:10244000081393F8291009B9012151605E4902224D
:102450008DF81820D1F88024C1F880249869D968B3
:1024600009920022CDE90710C3E90622D3E900143E
:1024700006A8A047544AD2F81C31BBB1534B186A86
:102480005969884269D350480022C0F81C21D0F80D
:102490001C010190019849B198688DF818200891A5
:1024A0005A610790D3E9001206A89047464AD2F82D
:1024B0004431DBB10021454BC2F84411D2F844014C
:1024C00093F829100090009809B1012111609A69D0
:1024D00062B10022586AD9689A610122CDE90710D9
:1024E0008DF8182006A8D3E9001290470BB030BD34
:1024F000354AD2F804335B07BCD5D2F80831002B3B
:10250000B8D0324B996900293CD00021C2F808119B
:10251000D2F8081104910499D868596AD2F818259C
:1025200042545A6A996901325A625A6A8A42A1D15E
:10253000DA691968002A2ED0D8685D6A1C699A6128
:10254000079000220120DC60DA615A628DF81800E1
:1025500008955B6806A898478CE793F8280000F078
:10256000FF0400288FD1C2F81C41D2F81C1102913F
:1025700002999C68186A196A205C01311962C2F8D4
:102580001C0593E7C2F80811D2F8080105900598D8
:10259000D2F81825C9E793F8292012B90A4A012070
:1025A0005060094A4FF40170C2F80803586ADA68AB
:1025B00008900024012007928DF818005A689C6149
:1025C00006A8904756E700BF00200040E40700201F
:1025D0002DE9F041DFF8E48107792C2606FB078618
:1025E00082B096F82A30002B40F0A1800D460446B8
:1025F0006E4900681646FFF7F1FB002840F0938013
:102600002B68591C19D01F2B4FF001028ABF684953
:102610004FF0A04103F01F0302FA03F3C1F808359D
:102620002B681F2B86BF03F01F03614A4FF0A042A7
:1026300003F5E073032142F823106B685A1C0BD09A
:102640001F2B86BF03F01F03594A4FF0A04203F52A
:10265000E073002142F823102368AA69C3F82425F7
:10266000297D6B7D22680B43C2F86C35D5E90012D9
:102670002368C3F81425C3F80C152B7D012B5AD001
:102680002C2303FB07F308EB030256602A6948F882
:102690000320002E34D022682B7F464D0021C2F843
:1026A0001C11D2F81C2100922268009EC2F844112D
:1026B000D2F84411226801910199C2F804532168AB
:1026C000090B4AB25B01002ADBB269DB02F160420E
:1026D00002F5614282F800332268120B42F3C40310
:1026E00023F0604323F0030303F1604303F56143E8
:1026F00002F01F02012101FA02F2C3F880211A60E0
:102700002C23246803FB0783002204250121C4F83D
:10271000005583F82A10C3E9062283F829205A615C
:1027200002B0BDE8F081112002B0BDE8F0810820C0
:1027300002B0BDE8F081AB68591C0BD01F2B86BFDF
:1027400003F01F031A4A4FF0A04203F5E073002183
:1027500042F82310EB685A1C1BD01F2B4FF00102CC
:102760008ABF13494FF0A04103F01F0302FA03F39D
:10277000C1F80835EB681F2B88BF03F01F0303F572
:10278000E0738CBF0A4A4FF0A042032142F82310A5
:10279000EB682268A968C2F80835C2F810156FE71F
:1027A000054A01F00F010A44137695E7152400004D
:1027B0000003005080000200FCEC00E0E407002071
:1027C000F8B53A4F047902682C2303FB0473002107
:1027D0005B68C2F8001583B10368354AC3F8082363
:1027E0000368344D1B0B5AB25209203203F01F0309
:1027F000012101FA03F345F8223003684FF0FF3C52
:10280000D3F80C65D3F81455D3F80825D3F8101570
:10281000C3F814C5C3F80CC503686645C3F808C5FA
:10282000C3F810C50CD01F2E86BF06F01F06224B22
:102830004FF0A04306F5E0764FF0020C43F826C0B7
:102840006E1C0BD01F2D86BF05F01F051A4B4FF0D5
:10285000A04305F5E075022643F825604D1C0BD01A
:102860001F2986BF01F01F01134B4FF0A04301F554
:10287000E071022543F82150531C0BD01F2A86BF5C
:1028800002F01F020C494FF0A04102F5E072022352
:1028900041F822300068FFF7BFFA2C2303FB0474D1
:1028A000002384F82A306360F8BD00BFE4070020ED
:1028B0008402020000E100E000030050F0B5314E58
:1028C00005792C2303FB056385B05C69002C53D18B
:1028D0001C62996083F828405A610268C2F81C4162
:1028E000D2F81C11026802910121029F91600268D6
:1028F000D3F808C0C2F81C41D2F81C11019101990B
:10290000D3F820E0196A5F681CF80EE00131196203
:10291000C2F81CE517B1204605B0F0BD1A6A5C6923
:102920000168944203D819E093F828203ABBD1F803
:102930001C21002AF8D0C1F81C71D1F81C21039287
:10294000039AD3F820E01A6A1CF80EE001321A62EA
:10295000C1F81CE51A6AA242E9D30168D1F81C311A
:10296000002BFBD00123CB6000202C2303FB05654B
:1029700000236B6105B0F0BD112005B0F0BD0F2044
:10298000F3E700BFE4070020F0B5474BD3F824215C
:1029900089B0002A54D00021C3F82411D3F824218F
:1029A000029202228DF81020029AD3F880043F4A46
:1029B000C3F880040790D3F83C05D3688DF818005D
:1029C000C2E9061105931168536804A89847364B6D
:1029D000D3F84421BAB10020344AC3F84401D3F8F3
:1029E000444191690194019C69B1D3F83C458DF84B
:1029F0001840D368906101240593116853688DF8DD
:102A0000104004A89847284BD3F82021B2B10021E8
:102A1000264AC3F82011D3F8204150690094009C45
:102A200060B1D3F84C0593688DF818008DF810103C
:102A30005161059304A8D2E90013984709B0F0BD8D
:102A4000D3F810110029C2D0C3F81021D3F8101107
:102A50001648039103998169D3F83C458C42B6D15D
:102A6000C569C768D0E90016E4B295B1D3F800C2D1
:102A700085612CF02005C261C3F800520369C36070
:102A800001228DF8184005978DF8102004A8B04752
:102A90009DE7012385618DF8184005978DF810306A
:102AA00004A8B04793E700BF0020004010080020B2
:102AB0002DE9F04307797E4E4FEAC70808EB07037C
:102AC00006EB830385B093F82030002B40F0B080F4
:102AD0000D460446774900689146FFF77FF90028C4
:102AE00040F0A2802B68591C19D01F2B4FF0010217
:102AF0008ABF71494FF0A04103F01F0302FA03F3AC
:102B0000C1F808352B681F2B86BF03F01F036A4AE4
:102B10004FF0A04203F5E073032142F823106B68E5
:102B20005A1C0BD01F2B86BF03F01F03624A4FF0C5
:102B3000A04203F5E073002142F823102368AA693C
:102B4000C3F82425297D6A7D23680A43C3F86C25D0
:102B5000D5E900312268C2F80C35C2F814152B7D76
:102B6000012B69D008EB07029200B318C3F8049058
:102B70002B69B350B9F1000F45D021682B7F4F4D21
:102B80000022C1F81021D1F8101100912168DDF860
:102B900000C0C1F82021D1F8201101912168DDF891
:102BA00004C0C1F82421D1F8241102912168DDF874
:102BB00008C0C1F84421D1F8441122680391039957
:102BC000C2F804532168090B4AB25B01002ADBB248
:102BD00067DB02F1604202F5614282F8003322684D
:102BE000120B42F3C40323F0604323F0030303F109
:102BF000604303F5614302F01F02012101FA02F272
:102C0000C3F880211A604744226806EB8706002338
:102C10000124082186F82040C2F80015C6E90633D1
:102C2000736105B0BDE8F083112005B0BDE8F08305
:102C3000082005B0BDE8F083AB68591C0BD01F2BF2
:102C400086BF03F01F031C4A4FF0A04203F5E07358
:102C5000002142F82310EB685A1C1BD01F2B4FF0A9
:102C600001028ABF14494FF0A04103F01F0302FA8A
:102C700003F3C1F80835EB681F2B88BF03F01F036F
:102C800003F5E0738CBF0C4A4FF0A042032142F8D9
:102C90002310EB682268A968C2F80835C2F810153D
:102CA00060E7074A01F00F010A44137697E700BF77
:102CB00010080020892900000003005010030200C2
:102CC000FCEC00E0F8B507793A4C0268FE00F31915
:102CD00004EB830300215B68C2F8001583B103682D
:102CE000354AC3F808230368344D1B0B5AB2520906
:102CF000203203F01F03012101FA03F345F82230CB
:102D000003684FF0FF3ED3F80CC5D3F81455D3F841
:102D10000825D3F81015C3F80CE5C3F814E50368CB
:102D2000F445C3F808E5C3F810E50DD0BCF11F0F5A
:102D300086BF0CF01F0C224B4FF0A0430CF5E07C3B
:102D40004FF0020E43F82CE06B1C0CD01F2D86BFF9
:102D500005F01F051A4B4FF0A04305F5E0754FF045
:102D6000020C43F825C04D1C0BD01F2986BF01F073
:102D70001F01134B4FF0A04301F5E071022543F80A
:102D80002150531C0BD01F2A86BF02F01F020C4992
:102D90004FF0A04102F5E072022341F822303E4498
:102DA00004EB86040068FFF737F8002384F820302E
:102DB0006360F8BD100800201003020000E100E08D
:102DC0000003005001F06043B3F1005F2CD1F0B577
:102DD0000679234F4FEAC60C0CEB060407EB84047C
:102DE00083B0636913BBA16062610568C5F82031D7
:102DF000D5F820E10568CDF804E0DDF804E0C5F879
:102E00005831D5F858E10568CDF800E0DDF800E06C
:102E1000C5F84415C5F8482502680121916062682B
:102E20003AB1184603B0F0BD10207047112003B02E
:102E3000F0BD036800E08AB9D3F82011D3F8582117
:102E40000029F8D0002A14BF0F2000200CEB060345
:102E500007EB830300225A6103B0F0BD0F20F5E7B2
:102E600010080020704700BF037803B1704710B509
:102E7000044604214068FFF783F96368DFED195ABF
:102E8000B3F90020184906EE102AB3F90220B8EE73
:102E9000C66A06EE902AB3F90420B3F9063007EEAD
:102EA000102AF8EEE66A36EE256A07EE903A76EEDC
:102EB000866AB8EEC77AF8EEE77A37EE267A0B4BD9
:102EC00077EE877AF5EE006A67EEA67A1888FCEE50
:102ED000E77A000440F0030017EE902ABDE81040A6
:102EE000FDF77EBD00000000CC3A0000100200207B
:102EF00010B584B0FEF728FE002831D104A91A4B82
:102F000041F8083D194A1A4800230393FFF79AF93C
:102F100018BB184B184AD3F8103515480021DBB2FE
:102F2000DA4000910123FFF719FA1148FFF708FA78
:102F3000FFF716F904461148FEF788FE50B90F4B0B
:102F40000F4918782246FEF7D1FE08B1FEF760F867
:102F500004B010BDFEF75CF8F1E7FEF759F8D8E7CA
:102F6000FEF756F8CAE700BF00000307652E000011
:102F7000A03A000000800040003E490044080020C4
:102F80004081004008B5054B1878FEF7F5FE00B902
:102F900008BDBDE80840FEF73BB800BF440800206C
:102FA00010B584B001230224062218498DF803309D
:102FB00068468DF800308DF801408DF80220FFF74B
:102FC0002FF8F8B90023124C124A8DF80C3018462D
:102FD00001A9CDE90142FFF771F880B904210E483B
:102FE000FFF7CEF840B904210C48FFF7C9F808B143
:102FF000FEF70EF804B010BDFEF70AF8F3E7FEF78F
:1030000007F8EBE7FEF704F8DCE700BF692E0000E5
:103010000100020003000002340800203C080020E8
:1030200008B54FF400410020FDF7D4FA08B1FDF7D0
:10303000EFFFFDF759FAFEF717FD08B1FDF7E8FFBE
:10304000FFF7AEFFFFF754FFFFF79CFF074B084960
:103050001888000440F00300FDF728FBFEF71AFD76
:10306000FDF734FE0028FBD1F8E700BF1002002076
:10307000A83A000010B44FF080414FF08052002079
:10308000C1F80C015E4BC1F81001C1F83805D2F847
:103090000414C3F82015D2F80814C3F82415D2F884
:1030A0000C14C3F82815D2F81014C3F82C15D2F854
:1030B0001414C3F83015D2F81814C3F83415D2F824
:1030C0001C14C3F84015D2F82014C3F84415D2F8E4
:1030D0002414C3F84815D2F82814C3F84C15D2F8B4
:1030E0002C14C3F85015D2F83014C3F85415D2F884
:1030F0003414C3F86015D2F83814C3F86415D2F844
:103100003C04C3F86805D2F840043E49C3F86C0596
:103110000968D2F84424C3F87025082924D04FF058
:103120008043D3F80024D20744BF6FF00102C3F8F4
:103130000024354AD2F8883043F47003C2F888304E
:10314000BFF34F8FBFF36F8F4FF01023D3F80022E0
:10315000002A23DBD3F80432002B1FDB2B4B2C4A35
:103160001A605DF8044B70472A4B1B68002BD6D1C0
:1031700029482A4A2A4C04602A492B4BFB20C2F8D2
:1031800018050A681B68294822F00F0203F00F0394
:1031900013434FF400720B600260C0E7244B01221E
:1031A000C3F80425D3F80024002AFBD04FF01023E5
:1031B00012221F49C3F80022D1F80034002BFBD0A3
:1031C0004FF0102212211A4BC2F80412D3F8002437
:1031D000002AFBD000221649C3F80425D1F8003498
:1031E000002BFBD0BFF34F8F0749124BCA6802F484
:1031F000E0621343CB60BFF34F8F00BFFDE700BF1A
:1032000000C000403001001000ED00E02000002070
:103210000090D003340100108C56004000F00040B4
:1032200048810300E40E004058020010409602401E
:1032300000E001400400FA0508B5074B044613B14D
:103240000021AFF30080054B1868836A03B19847EB
:10325000204600F071F800BF00000000D03A0000E6
:1032600070B50D4E0D4CA41BA4100025A54209D12C
:103270000B4E0C4C00F062F8A41BA4100025A542D4
:1032800005D170BD56F8253098470135EEE756F860
:10329000253098470135F2E7F4010020F4010020C1
:1032A000F4010020F8010020044B054A1B681B6A4A
:1032B000002B08BF1346D3F8EC0070472400002011
:1032C0008800002082B001B901A942B14BB1137846
:1032D0000B601278101C18BF012002B07047104616
:1032E000FBE76FF00100F8E710B5431E0A44914276
:1032F00000D110BD11F8014B03F8014FF7E702446C
:103300000346934200D1704703F8011BF9E70346D7
:1033100013F8012B002AFBD1181A0138704749B164
:10332000FF2A85BF8A2303600A704FF0FF3098BFE1
:103330000120704708467047FEE700BFF8B500BFA0
:10334000F8BC08BC9E467047F8B500BFF8BC08BC86
:103350009E467047FFFFFFFFFFFFFFFFFFFFFFFFDE
:10336000FFFFFFFF00000000000000000000D6018A
:1033700007010000D503000041040000D103000054
:103380004261636B656E647320666C757368656417
:10339000000000006170700062616C6C6F632E6CE5
:1033A0006F675F6D656D706F6F6C000004340000B7
:1033B00034340000E43300003C34000044340000A6
:1033C0004C340000543400005C34000064340000CD
:1033D0002025303278000000202020007C000000F2
:1033E000256300001B5B313B33316D0025734C6F4F
:1033F00067732064726F70706564202825642925C6
:10340000730D0A001B5B306D000000002573000087
:103410003C25733E2025733A200000000D0A000071
:10342000000000006C340000743400007C340000A4
:10343000843400001B5B313B33306D001B5B313B40
:1034400033326D001B5B313B33336D001B5B313B13
:1034500033346D001B5B313B33356D001B5B313BFF
:1034600033366D001B5B313B33376D006572726F15
:10347000720000007761726E696E6700696E666F38
:1034800000000000646562756700000046617461B9
:103490006C206572726F720053797374656D20725F
:1034A00065736574000000003031323334353637CF
:1034B0003839414243444546E43B0000E43B0000C8
:1034C000040000007077725F6D676D74000000008B
:1034D000556E6B6E6F776E206572726F7220636FC0
:1034E0006465000000000000FC35000001000000E1
:1034F000083600000200000028360000030000002B
:103500004C3600000400000060360000050000009A
:103510007436000006000000883600000700000036
:10352000A036000008000000B836000009000000C6
:10353000D03600000A000000EC3600000B0000004E
:10354000043700000C0000001C3700000D000000D4
:10355000303700000E000000443700000F0000006C
:103560005437000010000000683700001100000010
:1035700080370000800000009037000081000000CC
:10358000B437000082000000D03700008300000044
:10359000EC370000840000000C38000085000000BB
:1035A000303800008600000058380000900000000D
:1035B0007038000091000000903800009200000078
:1035C000B038000000820000C8380000018200000E
:1035D000E838000002820000043900000084000086
:1035E00020390000018400004439000002840000FA
:1035F0007039000003840000983900004E52465F85
:1036000053554343455353004E52465F4552524F24
:10361000525F5356435F48414E444C45525F4D49BB
:103620005353494E470000004E52465F4552524F99
:10363000525F534F46544445564943455F4E4F549D
:103640005F454E41424C4544000000004E52465FEB
:103650004552524F525F494E5445524E414C000024
:103660004E52465F4552524F525F4E4F5F4D454D51
:10367000000000004E52465F4552524F525F4E4F7F
:10368000545F464F554E44004E52465F4552524F8E
:10369000525F4E4F545F535550504F525445440063
:1036A0004E52465F4552524F525F494E56414C4929
:1036B000445F504152414D004E52465F4552524F79
:1036C000525F494E56414C49445F53544154450062
:1036D0004E52465F4552524F525F494E56414C49F9
:1036E000445F4C454E475448000000004E52465F30
:1036F0004552524F525F494E56414C49445F464CE9
:10370000414753004E52465F4552524F525F494E19
:1037100056414C49445F4441544100004E52465F7B
:103720004552524F525F444154415F53495A4500FC
:103730004E52465F4552524F525F54494D454F5588
:10374000540000004E52465F4552524F525F4E5554
:103750004C4C00004E52465F4552524F525F464F0E
:103760005242494444454E004E52465F4552524FE4
:10377000525F494E56414C49445F41444452000017
:103780004E52465F4552524F525F425553590000C8
:103790004E52465F4552524F525F4D4F44554C4535
:1037A0005F4E4F545F494E495449414C495A454434
:1037B000000000004E52465F4552524F525F4D5539
:1037C0005445585F494E49545F4641494C45440071
:1037D0004E52465F4552524F525F4D555445585FC9
:1037E0004C4F434B5F4641494C4544004E52465F67
:1037F0004552524F525F4D555445585F554E4C4FB0
:10380000434B5F4641494C45440000004E52465FE1
:103810004552524F525F4D555445585F434F4E44A9
:103820005F494E49545F4641494C45440000000001
:103830004E52465F4552524F525F4D4F44554C4594
:103840005F414C52454144595F494E495449414CAE
:10385000495A4544000000004E52465F4552524FBF
:10386000525F53544F524147455F46554C4C000000
:103870004E52465F4552524F525F4150495F4E4F44
:10388000545F494D504C454D454E54454400000051
:103890004E52465F4552524F525F46454154555233
:1038A000455F4E4F545F454E41424C454400000039
:1038B0004E52465F4552524F525F494F5F50454E00
:1038C00044494E47000000004E52465F4552524F59
:1038D000525F4452565F5457495F4552525F4F56AC
:1038E000455252554E0000004E52465F4552524FCF
:1038F000525F4452565F5457495F4552525F414EA2
:1039000041434B004E52465F4552524F525F445224
:10391000565F5457495F4552525F444E41434B00F6
:103920004E52465F4552524F525F424C455F49509E
:1039300053505F52585F504B545F5452554E434161
:10394000544544004E52465F4552524F525F424CDE
:10395000455F495053505F4348414E4E454C5F418F
:103960004C52454144595F45584953545300000057
:103970004E52465F4552524F525F424C455F49504E
:1039800053505F4C494E4B5F444953434F4E4E4555
:1039900043544544000000004E52465F4552524F8A
:1039A000525F424C455F495053505F504545525F0E
:1039B00052454A4543544544000000006E72667803
:1039C0005F7070695F6368616E6E656C5F616C6C7F
:1039D0006F6300006E7266785F7070695F63686124
:1039E0006E6E656C5F61737369676E006E72667888
:1039F0005F7070695F6368616E6E656C5F656E6154
:103A0000626C6500416C6C6F63617465642063680F
:103A1000616E6E656C3A2025642E000046756E63FB
:103A200074696F6E3A2025732C206572726F722054
:103A3000636F64653A2025732E000000417373693B
:103A4000676E6564206368616E6E656C3A202564FC
:103A50002C206576656E7420656E6420706F696ECB
:103A6000743A2025782C207461736B20656E642075
:103A7000706F696E743A2025782E00005052530002
:103A8000534141444300000054494D455200000059
:103A90005541525400000000554152544500000069
:103AA000008000400004000053414144432048414D
:103AB0004C2073696D706C65206578616D706C6504
:103AC00020737461727465642E0000002564000028
:103AD000280000204300504F534958002E0000207A
:103AE00020202020202020202828282828202020AE
:103AF000202020202020202020202020202020885E
:103B000010101010101010101010101010101004C1
:103B10000404040404040404041010101010101011
:103B20004141414141410101010101010101010105
:103B3000010101010101010101011010101010101B
:103B400042424242424202020202020202020202D5
:103B500002020202020202020202101010102000F1
:103B60000000000000000000000000000000000055
:103B70000000000000000000000000000000000045
:103B80000000000000000000000000000000000035
:103B90000000000000000000000000000000000025
:103BA0000000000000000000000000000000000015
:103BB0000000000000000000000000000000000005
:103BC00000000000000000000000000000000000F5
:103BD00000000000000000000000000000000000E5
:043BE00000000000E1
:103BE4007C3A000000000000803A00000000000061
:103BF400883A000000000000903A00000000000035
:103C0400983A000000000000943300000000030311
:103C14009833000000000003C434000000000000DA
:103C24008002002048030020500300208802002066
:083C340014020020180000003A
:083C3C0004C6FF7F0100000037
:103C440000000000002000400000000000200040B0
:103C540000000000743300000000000000000000B9
:103C64000090D003280000200000000000000000A5
:103C74000000000000000000000000000000000040
:103C84000000000000000000000000000000000030
:103C94000000000000000000000000000000000020
:103CA4000000000000000000000000000000000010
:103CB4000000000000000000000000000000000000
:103CC40000000000000000004300000000000000AD
:103CD40000000000000000000000000000000000E0
:103CE400000000000000000043000000000000008D
:103CF40000000000000000000000000000000000C0
:103D0400000000000000000043000000000000006C
:103D1400000000000000000000000000000000009F
:103D2400000000000000000043000000000000004C
:103D3400000000000000000000000000000000007F
:103D4400000000000000000043000000000000002C
:103D5400000000000000000000000000000000005F
:103D6400000000000000000043000000000000000C
:103D7400000000000000000000000000000000003F
:103D840000000000000000004300000000000000EC
:103D9400000000000000000000000000000000001F
:103DA40000000000000000001F330000C5320000C6
:103DB40000000000DE3A0000DC3A0000DD3A0000BA
:103DC400DD3A0000DD3A0000DD3A0000DD3A000093
:103DD400DD3A0000DD3A0000DD3A0000DD3A000083
:103DE400FFFFFFFFFFFFFFFFFFFFFFFFFFFF0000DD
:103DF4000100415343494900000000000000000055
:103E040000000000000000000000000000000000AE
:103E14000000415343494900000000000000000035
:103E2400000000000000000000000000000000008E
:0C3E340000000000250200000102000058
:103E40000000000000000000000000000000000072
:103E50000000000000000000000000000000000062
:04000003000002B542
:00000001FF
